{
  "contractName": "wallet",
  "abi": [
    {
      "inputs": [],
      "payable": false,
      "stateMutability": "nonpayable",
      "type": "constructor"
    },
    {
      "constant": true,
      "inputs": [
        {
          "internalType": "address",
          "name": "",
          "type": "address"
        }
      ],
      "name": "balance_record",
      "outputs": [
        {
          "internalType": "uint256",
          "name": "total",
          "type": "uint256"
        },
        {
          "internalType": "uint256",
          "name": "numpay",
          "type": "uint256"
        }
      ],
      "payable": false,
      "stateMutability": "view",
      "type": "function"
    },
    {
      "constant": true,
      "inputs": [],
      "name": "owner",
      "outputs": [
        {
          "internalType": "address payable",
          "name": "",
          "type": "address"
        }
      ],
      "payable": false,
      "stateMutability": "view",
      "type": "function"
    },
    {
      "constant": true,
      "inputs": [],
      "name": "paused",
      "outputs": [
        {
          "internalType": "bool",
          "name": "",
          "type": "bool"
        }
      ],
      "payable": false,
      "stateMutability": "view",
      "type": "function"
    },
    {
      "constant": false,
      "inputs": [
        {
          "internalType": "bool",
          "name": "ch",
          "type": "bool"
        }
      ],
      "name": "change",
      "outputs": [],
      "payable": false,
      "stateMutability": "nonpayable",
      "type": "function"
    },
    {
      "constant": false,
      "inputs": [],
      "name": "sendMoney",
      "outputs": [],
      "payable": true,
      "stateMutability": "payable",
      "type": "function"
    },
    {
      "constant": true,
      "inputs": [],
      "name": "getBal",
      "outputs": [
        {
          "internalType": "uint256",
          "name": "",
          "type": "uint256"
        }
      ],
      "payable": false,
      "stateMutability": "view",
      "type": "function"
    },
    {
      "constant": true,
      "inputs": [
        {
          "internalType": "uint256",
          "name": "_amt",
          "type": "uint256"
        }
      ],
      "name": "convert",
      "outputs": [
        {
          "internalType": "uint256",
          "name": "",
          "type": "uint256"
        }
      ],
      "payable": false,
      "stateMutability": "pure",
      "type": "function"
    },
    {
      "constant": false,
      "inputs": [
        {
          "internalType": "uint256",
          "name": "_amt",
          "type": "uint256"
        }
      ],
      "name": "withdraw",
      "outputs": [],
      "payable": false,
      "stateMutability": "nonpayable",
      "type": "function"
    },
    {
      "constant": false,
      "inputs": [
        {
          "internalType": "address payable",
          "name": "ender",
          "type": "address"
        }
      ],
      "name": "destroy",
      "outputs": [],
      "payable": false,
      "stateMutability": "nonpayable",
      "type": "function"
    }
  ],
  "bytecode": "0x608060405234801561001057600080fd5b50336000806101000a81548173ffffffffffffffffffffffffffffffffffffffff021916908373ffffffffffffffffffffffffffffffffffffffff160217905550610965806100606000396000f3fe6080604052600436106100855760003560e01c80636bca820e116100595780636bca820e1461017057806386fcd11b146101ad5780638da5cb5b14610219578063a3908e1b14610270578063cbedbf5a146102bf57610085565b8062f55d9d1461008a57806325caa262146100db5780632e1a7d4d146101065780635c975abb14610141575b600080fd5b34801561009657600080fd5b506100d9600480360360208110156100ad57600080fd5b81019080803573ffffffffffffffffffffffffffffffffffffffff1690602001909291905050506102c9565b005b3480156100e757600080fd5b506100f06103a4565b6040518082815260200191505060405180910390f35b34801561011257600080fd5b5061013f6004803603602081101561012957600080fd5b81019080803590602001909291905050506103ee565b005b34801561014d57600080fd5b506101566105c8565b604051808215151515815260200191505060405180910390f35b34801561017c57600080fd5b506101ab6004803603602081101561019357600080fd5b810190808035151590602001909291905050506105db565b005b3480156101b957600080fd5b506101fc600480360360208110156101d057600080fd5b81019080803573ffffffffffffffffffffffffffffffffffffffff1690602001909291905050506106ba565b604051808381526020018281526020019250505060405180910390f35b34801561022557600080fd5b5061022e6106de565b604051808273ffffffffffffffffffffffffffffffffffffffff1673ffffffffffffffffffffffffffffffffffffffff16815260200191505060405180910390f35b34801561027c57600080fd5b506102a96004803603602081101561029357600080fd5b8101908080359060200190929190505050610703565b6040518082815260200191505060405180910390f35b6102c761071e565b005b6000809054906101000a900473ffffffffffffffffffffffffffffffffffffffff1673ffffffffffffffffffffffffffffffffffffffff163373ffffffffffffffffffffffffffffffffffffffff161461038b576040517f08c379a00000000000000000000000000000000000000000000000000000000081526004018080602001828103825260118152602001807f596f7520617265206e6f74206f776e657200000000000000000000000000000081525060200191505060405180910390fd5b8073ffffffffffffffffffffffffffffffffffffffff16ff5b6000600160003373ffffffffffffffffffffffffffffffffffffffff1673ffffffffffffffffffffffffffffffffffffffff16815260200190815260200160002060000154905090565b60001515600060149054906101000a900460ff16151514610477576040517f08c379a00000000000000000000000000000000000000000000000000000000081526004018080602001828103825260128152602001807f436f6e747261637420697320706175736564000000000000000000000000000081525060200191505060405180910390fd5b80600160003373ffffffffffffffffffffffffffffffffffffffff1673ffffffffffffffffffffffffffffffffffffffff168152602001908152602001600020600001541161052e576040517f08c379a00000000000000000000000000000000000000000000000000000000081526004018080602001828103825260108152602001807f4e6f7420656e6f7567682066756e64730000000000000000000000000000000081525060200191505060405180910390fd5b80600160003373ffffffffffffffffffffffffffffffffffffffff1673ffffffffffffffffffffffffffffffffffffffff168152602001908152602001600020600001600082825403925050819055503373ffffffffffffffffffffffffffffffffffffffff166108fc829081150290604051600060405180830381858888f193505050501580156105c4573d6000803e3d6000fd5b5050565b600060149054906101000a900460ff1681565b6000809054906101000a900473ffffffffffffffffffffffffffffffffffffffff1673ffffffffffffffffffffffffffffffffffffffff163373ffffffffffffffffffffffffffffffffffffffff161461069d576040517f08c379a00000000000000000000000000000000000000000000000000000000081526004018080602001828103825260118152602001807f596f7520617265206e6f74206f776e657200000000000000000000000000000081525060200191505060405180910390fd5b80600060146101000a81548160ff02191690831515021790555050565b60016020528060005260406000206000915090508060000154908060010154905082565b6000809054906101000a900473ffffffffffffffffffffffffffffffffffffffff1681565b6000670de0b6b3a7640000828161071657fe5b049050919050565b60001515600060149054906101000a900460ff161515146107a7576040517f08c379a00000000000000000000000000000000000000000000000000000000081526004018080602001828103825260128152602001807f436f6e747261637420697320706175736564000000000000000000000000000081525060200191505060405180910390fd5b34600160003373ffffffffffffffffffffffffffffffffffffffff1673ffffffffffffffffffffffffffffffffffffffff1681526020019081526020016000206000016000828254019250508190555060018060003373ffffffffffffffffffffffffffffffffffffffff1673ffffffffffffffffffffffffffffffffffffffff1681526020019081526020016000206001016000828254019250508190555061084f610916565b604051806040016040528034815260200142815250905080600160003373ffffffffffffffffffffffffffffffffffffffff1673ffffffffffffffffffffffffffffffffffffffff1681526020019081526020016000206002016000600160003373ffffffffffffffffffffffffffffffffffffffff1673ffffffffffffffffffffffffffffffffffffffff168152602001908152602001600020600101548152602001908152602001600020600082015181600001556020820151816001015590505050565b60405180604001604052806000815260200160008152509056fea265627a7a723158208d0ec34ac643e518906057ab7543bac8aeed71e23f41044d6f1c18f5d9e5a9db64736f6c63430005100032",
  "source": "pragma solidity >=0.4.21 <0.7.0;\n\ncontract wallet{\n    address payable public owner;\n    bool public paused;\n    constructor() public{\n        owner = msg.sender;\n    }\n    struct Payment{\n        uint amt;\n        uint timestamp;\n    }\n    \n    struct Balance{\n        uint total;\n        uint numpay;\n        mapping(uint => Payment) payments;\n    }\n    \n    mapping(address => Balance) public balance_record;\n    \n    modifier onlyOwner(){\n        require(msg.sender == owner, \"You are not owner\");\n        _;\n    }\n    \n    modifier withoutPaused() {\n        require(paused == false, \"Contract is paused\");\n        _;\n    }\n    \n    function change(bool ch) public onlyOwner{\n        paused =ch;\n    }\n    \n    function sendMoney() public payable withoutPaused{\n        balance_record[msg.sender].total += msg.value;\n        balance_record[msg.sender].numpay += 1;\n        Payment memory pay = Payment(msg.value, now);\n        balance_record[msg.sender].payments[balance_record[msg.sender].numpay] = pay;\n    }\n    function getBal() public view returns(uint) {\n        return balance_record[msg.sender].total;\n    }\n    function convert(uint _amt) public pure returns(uint) {\n        return _amt/1 ether;\n    }\n    function withdraw(uint _amt) public withoutPaused{\n        require(balance_record[msg.sender].total > _amt, \"Not enough funds\");\n        balance_record[msg.sender].total -= _amt;\n        msg.sender.transfer(_amt);\n    }\n    \n    function destroy(address payable ender) public onlyOwner{\n        selfdestruct(ender);\n    }\n}",
  "sourcePath": "C:/Users/tanis/Desktop/Blockchain/react-box-tutorial/contracts/wallet.sol",
  "compiler": {
    "name": "solc",
    "version": "0.5.16+commit.9c3226ce.Emscripten.clang"
  },
  "schemaVersion": "3.2.4",
  "updatedAt": "2021-01-02T13:29:18.586Z",
  "devdoc": {
    "methods": {}
  },
  "userdoc": {
    "methods": {}
  }
}